:100000000C945C000C9417010C943E010C94790044
:100010000C9479000C9479000C9479000C9479007C
:100020000C9479000C9479000C9479000C9479006C
:100030000C9479000C9479000C9479000C9479005C
:100040000C9465010C9479000C9479000C9479005F
:100050000C9479000C9479000C9479000C9479003C
:100060000C9479000C947900000000080002010053
:100070000003040700000000000000000102040863
:100080001020408001020408102001020408102002
:10009000040404040404040402020202020203032E
:1000A0000303030300000000250028002B000000CC
:1000B0000000240027002A0011241FBECFEFD8E043
:1000C000DEBFCDBF11E0A0E0B1E0E4ECF5E002C09E
:1000D00005900D92A630B107D9F721E0A6E0B1E076
:1000E00001C01D92AF30B207E1F70E94E7000C9407
:1000F000E0020C9400009091010181E08927809337
:1001000001016091010187E00C94B002609100014F
:1001100088E00E94B0029091000181E089278093DD
:100120000001089561E082E00E94740261E087E0CE
:100130000E94740261E083E00E94740261E088E042
:100140000E94740241E050E06BE770E080E00E94A2
:10015000F70041E050E066E870E081E00C94F700C1
:100160006091010182E00E94B0026091000183E091
:100170000E94B00264EF71E080E090E00E94D40140
:100180006091000183E00E94B00264EF71E080E0C2
:1001900090E00E94D4016091010182E00E94B002CF
:1001A0006091000183E00E94B00264EF71E080E0A2
:1001B00090E00E94D4016091000183E00E94B002AF
:1001C00064EF71E080E090E00C94D40108950E9407
:1001D00010020E94E6000E949200C0E0D0E00E945F
:1001E000B0002097E1F30E940000F9CF089582301B
:1001F000E8F4E82FF0E0EE0FFF1FEE5FFE4F718393
:100200006083813041F0809169008C7F482B40935E
:100210006900E89A089580916900837F440F551F13
:10022000440F551F482B40936900E99A08951F9287
:100230000F920FB60F9211242F933F934F935F931A
:100240006F937F938F939F93AF93BF93EF93FF939E
:10025000E0910201F09103010995FF91EF91BF91A7
:10026000AF919F918F917F916F915F914F913F914E
:100270002F910F900FBE0F901F9018951F920F9205
:100280000FB60F9211242F933F934F935F936F9369
:100290007F938F939F93AF93BF93EF93FF93E091DF
:1002A0000401F09105010995FF91EF91BF91AF9184
:1002B0009F918F917F916F915F914F913F912F917E
:1002C0000F900FBE0F901F9018951F920F920FB6B0
:1002D0000F9211242F933F938F939F93AF93BF93CC
:1002E0008091070190910801A0910901B0910A0144
:1002F0003091060123E0230F2D3720F40196A11D34
:10030000B11D05C026E8230F0296A11DB11D209343
:1003100006018093070190930801A0930901B0930F
:100320000A0180910B0190910C01A0910D01B091F7
:100330000E010196A11DB11D80930B0190930C013C
:10034000A0930D01B0930E01BF91AF919F918F913A
:100350003F912F910F900FBE0F901F9018953FB7B0
:10036000F89480910B0190910C01A0910D01B09136
:100370000E0126B5A89B05C02F3F19F00196A11DBF
:10038000B11D3FBFBA2FA92F982F8827820F911D2B
:10039000A11DB11DBC01CD0142E0660F771F881F72
:1003A000991F4A95D1F708958F929F92AF92BF926D
:1003B000CF92DF92EF92FF926B017C010E94AF011E
:1003C0004B015C01C114D104E104F10401F10E946C
:1003D000DF020E94AF01DC01CB0188199909AA094B
:1003E000BB09883E9340A105B10560F321E0C21A24
:1003F000D108E108F10888EE880E83E0981EA11C60
:10040000B11CC114D104E104F10419F7DBCFFF9052
:10041000EF90DF90CF90BF90AF909F908F90089516
:10042000789484B5826084BD84B5816084BD85B5CF
:10043000826085BD85B5816085BDEEE6F0E0808196
:1004400081608083E1E8F0E01082808182608083B7
:10045000808181608083E0E8F0E08081816080833A
:10046000E1EBF0E0808184608083E0EBF0E080816C
:1004700081608083EAE7F0E080818460808380810E
:1004800082608083808181608083808180688083B6
:100490001092C1000895833081F028F4813099F0E2
:1004A0008230A1F008958730A9F08830B9F0843007
:1004B000D1F4809180008F7D03C0809180008F7780
:1004C00080938000089584B58F7702C084B58F7DB6
:1004D00084BD08958091B0008F7703C08091B000F3
:1004E0008F7D8093B0000895CF93DF9390E0FC015F
:1004F000E458FF4F2491FC01E057FF4F849188237B
:1005000061F190E0880F991FFC01E255FF4FC59102
:10051000D491FC01EC55FF4FA591B491611109C034
:100520009FB7F8948881209582238883EC912E23AD
:100530000BC0623061F49FB7F8948881322F3095F8
:1005400083238883EC912E2B2C939FBF06C08FB7FB
:10055000F894E8812E2B28838FBFDF91CF910895E7
:100560001F93CF93DF93282F30E0F901E859FF4F15
:100570008491F901E458FF4FD491F901E057FF4FFE
:10058000C491CC23C1F0162F81110E944B02EC2F95
:10059000F0E0EE0FFF1FEC55FF4FA591B4919FB710
:1005A000F894111104C08C91D095D82302C0EC911D
:1005B000DE2BDC939FBFDF91CF911F9108950895AB
:0405C000F894FFCFDD
:0605C4000101F600F60043
:00000001FF
