S00C00004B6E6F622E737265638E
S11300000C945D000C9468010C948F010C94850091
S11300100C9485000C9485000C9485000C94850048
S11300200C9485000C9485000C9485000C948E032C
S11300300C9485000C9485000C9485000C94850028
S11300400C94B6010C9485000C9485000C948500E6
S11300500C9485000C9485000C9485000C94850008
S11300600C9485000C948500000000080002010037
S1130070000304070000000000000000010204085F
S113008010204080010204081020010204081020FE
S1130090040404040404040402020202020203032A
S11300A00303030300000000250028002B000000C8
S11300B00000240027002A00330111241FBECFEFC3
S11300C0D8E0DEBFCDBF11E0A0E0B1E0E6E0FCE0A7
S11300D002C005900D92A830B107D9F721E0A8E03D
S11300E0B1E001C01D92AE33B207E1F710E0CDE5F7
S11300F0D0E004C02197FE010E94EC05CC35D10765
S1130100C9F70E9438010C9401060C94000060E0C9
S113011081E00E941E0360E083E00C941E03CF92F2
S1130120DF92EF92FF926C0161E083E00E941E0374
S11301300D2C000CEE08FF08C701B6010E94250231
S113014060E083E00E941E03C701B601FF90EF90B8
S1130150DF90CF900C94250261E081E00C941E03A3
S1130160209108013091090181E090E0232B11F0E6
S113017080E090E09093090180930801089560E184
S113018070E08CE091E00E94EB0443E050E060EB0F
S113019070E080E00C944801AF92BF92CF92DF925E
S11301A0EF92FF920F931F9310920B0110920A018A
S11301B08091080190910901019749F4809100010F
S11301C00E949C0290930B0180930A0106C00E9436
S11301D0870010920B0110920A0180910A019091FC
S11301E00B01853F9140ACF10E94870088EE93E0BB
S11301F00E948F0060910A0170910B01072E000C80
S1130200880B990B1F921F921F9224EB2F93A12C02
S1130210B12C6501EE24EA9413E0F12E00E010E025
S113022020E030E0A9010E944D0370930B0160931C
S11302300A010F900F900F900F908CE091E01F91A6
S11302400F91FF90EF90DF90CF90BF90AF900C9400
S113025027051F910F91FF90EF90DF90CF90BF90F3
S1130260AF900C94AC008CE091E00C944F04089592
S11302700E9461020E9437010E94BF00C0E0D0E0EA
S11302800E94CC002097E1F30E940000F9CF08956A
S11302908230E8F4E82FF0E0EE0FFF1FEE5FFE4F30
S11302A071836083813041F0809169008C7F482B99
S11302B040936900E89A089580916900837F440F10
S11302C0551F440F551F482B40936900E99A089520
S11302D01F920F920FB60F9211242F933F934F93B7
S11302E05F936F937F938F939F93AF93BF93EF939A
S11302F0FF93E0910201F09103010995FF91EF91C1
S1130300BF91AF919F918F917F916F915F914F9129
S11303103F912F910F900FBE0F901F9018951F9231
S11303200F920FB60F9211242F933F934F935F9325
S11303306F937F938F939F93AF93BF93EF93FF93A9
S1130340E0910401F09105010995FF91EF91BF91AE
S1130350AF919F918F917F916F915F914F913F9159
S11303602F910F900FBE0F901F9018951F920F9210
S11303700FB60F9211242F933F938F939F93AF93B4
S1130380BF938091100190911101A0911201B0913D
S1130390130130910F0123E0230F2D3720F4019630
S11303A0A11DB11D05C026E8230F0296A11DB11D94
S11303B020930F018093100190931101A0931201D7
S11303C0B09313018091140190911501A09116012D
S11303D0B09117010196A11DB11D80931401909352
S11303E01501A0931601B0931701BF91AF919F918E
S11303F08F913F912F910F900FBE0F901F901895E2
S11304003FB7F8948091140190911501A0911601C1
S1130410B091170126B5A89B05C02F3F19F001968E
S1130420A11DB11D3FBFBA2FA92F982F8827820F76
S1130430911DA11DB11DBC01CD0142E0660F771FC6
S1130440881F991F4A95D1F708958F929F92AF9272
S1130450BF92CF92DF92EF92FF926B017C010E94D8
S113046000024B015C01C114D104E104F10401F167
S11304700E9483050E940002DC01CB0188199909BE
S1130480AA09BB09883E9340A105B10560F321E0A8
S1130490C21AD108E108F10888EE880E83E0981E9C
S11304A0A11CB11CC114D104E104F10419F7DBCF80
S11304B0FF90EF90DF90CF90BF90AF909F908F9080
S11304C00895789484B5826084BD84B5816084BDC8
S11304D085B5826085BD85B5816085BDEEE6F0E0B9
S11304E0808181608083E1E8F0E010828081826015
S11304F08083808181608083E0E8F0E08081816096
S11305008083E1EBF0E0808184608083E0EBF0E0C5
S1130510808181608083EAE7F0E080818460808369
S11305208081826080838081816080838081806813
S113053080831092C10008958E3008F08E5020916F
S1130540060190E4299F900111248770822B8093E7
S11305507C0080917A00806480937A0080917A0094
S113056086FDFCCF809178002091790090E0922B59
S11305700895833081F028F4813099F08230A1F01D
S113058008958730A9F08830B9F08430D1F480918F
S113059080008F7D03C0809180008F7780938000DE
S11305A0089584B58F7702C084B58F7D84BD089586
S11305B08091B0008F7703C08091B0008F7D8093CD
S11305C0B0000895CF93DF9390E0FC01E458FF4F0F
S11305D02491FC01E057FF4F8491882361F190E05E
S11305E0880F991FFC01E255FF4FC591D491FC017E
S11305F0EC55FF4FA591B491611109C09FB7F894D0
S11306008881209582238883EC912E230BC062304D
S113061061F49FB7F8948881322F309583238883BF
S1130620EC912E2B2C939FBF06C08FB7F894E881D2
S11306302E2B28838FBFDF91CF9108951F93CF93E3
S1130640DF93282F30E0F901E859FF4F8491F90135
S1130650E458FF4FD491F901E057FF4FC491CC23E4
S1130660C1F0162F81110E94B902EC2FF0E0EE0FB9
S1130670FF1FEC55FF4FA591B4919FB7F89411114A
S113068004C08C91D095D82302C0EC91DE2BDC936E
S11306909FBFDF91CF911F9108954F925F926F9208
S11306A07F92AF92BF92CF92DF92EF92FF920F931D
S11306B01F93CF93DF93CDB7DEB729013A019B0196
S11306C0AC01241935094609570989899A89AB89E6
S11306D0BC89BC01CD016A197B098C099D090E9462
S11306E08405A801970124193509460957090E9470
S11306F0A005CA01B9016A0D7B1D8C1D9D1DDF91EA
S1130700CF911F910F91FF90EF90DF90CF90BF900A
S1130710AF907F906F905F904F9008951F920F92CB
S11307200FB60F9211242F933F934F935F936F93C0
S11307307F938F939F93AF93BF93EF93FF93809196
S1130740190187FF05C010928500109284001BC018
S113075020911901022E000C330B8091180190E0B6
S11307602817390784F480911901082E000C990B7D
S1130770FC01EE0FFF1F8E0F9F1FFC01E65EFE4F74
S1130780808186FD15C0809119018F5F80931901C6
S113079020911901022E000C330B8091180190E076
S11307A028173907C4F4809119018C3064F113C0FF
S11307B080911901082E000C990BFC01EE0FFF1F0C
S11307C08E0F9F1FFC01E65EFE4F808160E08F73F9
S11307D00E941E03D8CF80918400909185000496D6
S11307E080349C4918F480E49CE905C0809184001D
S11307F090918500049690938900809388008FEFF0
S1130800809319013BC02091840030918500809130
S11308101901082E000C990BFC01EE0FFF1F8E0F1F
S11308209F1FFC01E65EFE4F81819281820F931F20
S1130830909389008093880080911901082E000C00
S1130840990BFC01EE0FFF1F8E0F9F1FFC01E65E4C
S1130850FE4F808186FF12C080911901082E000C82
S1130860990BFC01EE0FFF1F8E0F9F1FFC01E65E2C
S1130870FE4F808161E08F730E941E03FF91EF9110
S1130880BF91AF919F918F917F916F915F914F91A4
S11308903F912F910F900FBE0F901F901895FC0160
S11308A0909118019C30A0F481E0890F8093180185
S11308B09083892F90E0FC01EE0FFF1F8E0F9F1F86
S11308C0FC01E65EFE4F88EB9BE0928381830895F2
S11308D08FEF80830895DF92EF92FF920F931F931F
S11308E0CF93DF93EC01D62E7A01890188818C3075
S11308F008F068C061E08D2D0E94E2028881E82F33
S1130900F0E09F01220F331FE20FF31FE65EFE4F5C
S11309109D2D9F732081207CD22ED92AD08220E263
S113092032E02E193F0937FF02C02D5F3F4F359546
S1130930279535952795298320E639E0201B310B2F
S113094037FF02C02D5F3F4F359527953595279585
S11309502A832CE0622F0E949405289FB001112461
S113096040E050E09B01240F351FF901EE0FFF1FFB
S11309702E0F3F1FF901E65EFE4F908196FD16C0D3
S11309804F5F5F4F4C30510569F781110FC01092D2
S1130990800082E080938100109285001092840090
S11309A0B19A80916F00826080936F00E881F0E0DB
S11309B0CF01880F991FE80FF91FE65EFE4F808173
S11309C0806480838881DF91CF911F910F91FF9084
S11309D0EF90DF90089520E639E040E252E00C9475
S11309E06B04FC0190819C3088F5818128E830E01B
S11309F0281B310987FD3395220F331F220F331F24
S1130A006217730784F0828148E552E0481B51095C
S1130A1087FD5395440F551F440F551F9B014617DF
S1130A2057070CF49A0122503109220F331F4FB794
S1130A30F894892F90E0FC01EE0FFF1F8E0F9F1F8B
S1130A40FC01E65EFE4F328321834FBF0895AF92CF
S1130A50BF92CF92DF92EF92FF920F931F93CF93A7
S1130A60DF93EC01603282E078070CF03FC077FD41
S1130A7006C0653B71052CF064EB70E002C060E0D9
S1130A8070E0898128E830E05901A81AB10887FD8F
S1130A90B394AA0CBB1CAA0CBB1C0B2C000CCC08DA
S1130AA0DD08072E000C880B990B2A8108E512E05B
S1130AB0021B110927FD1395000F111F000F111FB1
S1130AC0012E000C220B330B3F932F931F930F9394
S1130AD014EBE12EF12C00E010E020E030E0A9015D
S1130AE00E944D030F900F900F900F90CE01DF9155
S1130AF0CF911F910F91FF90EF90DF90CF90BF9017
S1130B00AF900C94F1040895DB018F939F930E949E
S1130B10BF05BF91AF91A29F800D911DA39F900D22
S1130B20B29F900D11240895991B79E004C0991F78
S1130B30961708F0961B881F7A95C9F78095089533
S1130B40052E97FB1EF400940E94B70557FD07D0AD
S1130B500E94CA0507FC03D04EF40C94B7055095C7
S1130B604095309521953F4F4F4F5F4F0895909595
S1130B708095709561957F4F8F4F9F4F08950E9488
S1130B80F205A59F900DB49F900DA49F800D911D1B
S1130B9011240895A1E21A2EAA1BBB1BFD010DC04E
S1130BA0AA1FBB1FEE1FFF1FA217B307E407F50719
S1130BB020F0A21BB30BE40BF50B661F771F881FF5
S1130BC0991F1A9469F760957095809590959B018B
S1130BD0AC01BD01CF010895EE0FFF1F0590F49104
S1130BE0E02D0994A29FB001B39FC001A39F700D93
S1130BF0811D1124911DB29F700D811D1124911D21
S1090C000895F894FFCFF3
S10B0C060F0047014701010042
S9030000FC
