:100000000C9434000C9451000C9451000C94510049
:100010000C9451000C9451000C9451000C9451001C
:100020000C9451000C9451000C9451000C9451000C
:100030000C9451000C9451000C9451000C945100FC
:100040000C943D030C9451000C9451000C945100FD
:100050000C9451000C9451000C9451000C945100DC
:100060000C9451000C94510011241FBECFEFD8E026
:10007000DEBFCDBF11E0A0E0B1E0E2ECF7E002C0EE
:1000800005900D92A03CB107D9F721E0A0ECB1E0BA
:1000900001C01D92A93CB207E1F70E942E030C9407
:1000A000DF030C940000CF93DF93CDB7DEB70000E1
:1000B000DF91CF910895CF93DF93CDB7DEB76097EF
:1000C0000FB6F894DEBF0FBECDBF1D821E821F8209
:1000D00018868EE00E94C203092E000CAA0BBB0BEF
:1000E000BC01CD010E947802DC01CB018D839E838F
:1000F000AF83B88720E030E048EC51E46D817E8129
:100100008F8198850E94CE01DC01CB0120E030E098
:10011000A901BC01CD010E94280388230CF43FC033
:1001200020E030E048EC51E46D817E818F8198853C
:100130000E94CE01DC01CB0120E030E040E05FE333
:10014000BC01CD010E945D01DC01CB01BC01CD01F0
:100150000E9440029B01AC01DA01C901880F991F7E
:10016000AA1FBB1F880F991FAA1FBB1F820F931FB7
:10017000A41FB51F9C01AD01220F331F441F551F43
:10018000220F331F441F551F820F931FA41FB51F3B
:10019000BC01CD010E947802DC01CB013EC020E011
:1001A00030E048EC51E46D817E818F8198850E941A
:1001B000CE01DC01CB0120E030E040E05FE3BC0198
:1001C000CD010E945C01DC01CB01BC01CD010E948C
:1001D00040029B01AC01DA01C901880F991FAA1FD7
:1001E000BB1F880F991FAA1FBB1F820F931FA41F3D
:1001F000B51F9C01AD01220F331F441F551F220F55
:10020000331F441F551F820F931FA41FB51FBC012E
:10021000CD010E947802DC01CB0189879A87AB87E8
:10022000BC871A8219821C821B828B819C814F970A
:1002300044F58B819C81880F991F8F5F9E4FFC0135
:1002400080819181092E000CAA0BBB0BBC01CD0152
:100250000E947802DC01CB0129853A854B855C85BB
:10026000BC01CD010E94C901882329F48B819C81A6
:100270009A83898306C08B819C8101969C838B83A2
:10028000D4CF89819A81880F991F880F991F815C2B
:100290009E4FFC0180819181A281B3818D879E87D1
:1002A000AF87B88B000060960FB6F894DEBF0FBE24
:1002B000CDBFDF91CF9108955058BB27AA270E9448
:1002C00074010C94EE020E94E00238F00E94E702F2
:1002D00020F039F49F3F19F426F40C94DD020EF45B
:1002E000E095E7FB0C94D702E92F0E94FF0258F338
:1002F000BA17620773078407950720F079F4A6F50B
:100300000C9421030EF4E0950B2EBA2FA02D0B01B7
:10031000B90190010C01CA01A0011124FF27591B4A
:1003200099F0593F50F4503E68F11A16F040A22F50
:10033000232F342F4427585FF3CF469537952795C1
:10034000A795F0405395C9F77EF41F16BA0B620BC0
:10035000730B840BBAF09150A1F0FF0FBB1F661F07
:10036000771F881FC2F70EC0BA0F621F731F841F4A
:1003700048F4879577956795B795F7959E3F08F070
:10038000B0CF9395880F08F09927EE0F9795879532
:1003900008950E94B30208F481E008950E94E201EA
:1003A0000C94EE020E94E70258F00E94E00240F036
:1003B00029F45F3F29F00C94D70251110C942203C9
:1003C0000C94DD020E94FF0268F39923B1F35523D8
:1003D00091F3951B550BBB27AA2762177307840758
:1003E00038F09F5F5F4F220F331F441FAA1FA9F3EE
:1003F00035D00E2E3AF0E0E832D091505040E695DC
:10040000001CCAF72BD0FE2F29D0660F771F881F3C
:10041000BB1F261737074807AB07B0E809F0BB0B2F
:10042000802DBF01FF2793585F4F3AF09E3F510543
:1004300078F00C94D7020C9422035F3FE4F3983ECB
:10044000D4F3869577956795B795F7959F5FC9F72C
:10045000880F911D9695879597F90895E1E0660FAD
:10046000771F881FBB1F621773078407BA0720F026
:10047000621B730B840BBA0BEE1F88F7E09508958F
:100480000E9447026894B1110C94220308950E94BF
:10049000070388F09F5798F0B92F9927B751B0F00C
:1004A000E1F0660F771F881F991F1AF0BA95C9F7F8
:1004B00014C0B13091F00E942103B1E008950C9472
:1004C0002103672F782F8827B85F39F0B93FCCF325
:1004D000869577956795B395D9F73EF49095809575
:1004E000709561957F4F8F4F9F4F0895E89409C095
:1004F00097FB3EF490958095709561957F4F8F4F57
:100500009F4F9923A9F0F92F96E9BB279395F6956C
:10051000879577956795B795F111F8CFFAF4BB0FEA
:1005200011F460FF1BC06F5F7F4F8F4F9F4F16C04E
:10053000882311F096E911C0772321F09EE8872FD8
:10054000762F05C0662371F096E8862F70E060E094
:100550002AF09A95660F771F881FDAF7880F96950D
:10056000879597F90895990F0008550FAA0BE0E8B1
:10057000FEEF16161706E807F907C0F01216130665
:10058000E407F50798F0621B730B840B950B39F4A5
:100590000A2661F0232B242B252B21F408950A260B
:1005A00009F4A140A6958FEF811D811D089597F94B
:1005B0009F6780E870E060E008959FEF80EC089509
:1005C00000240A9416161706180609060895002432
:1005D0000A9412161306140605060895092E0394AC
:1005E000000C11F4882352F0BB0F40F4BF2B11F420
:1005F00060FF04C06F5F7F4F8F4F9F4F089557FD7F
:100600009058440F551F59F05F3F71F04795880F80
:1006100097FB991F61F09F3F79F087950895121617
:1006200013061406551FF2CF4695F1DF08C01616C3
:1006300017061806991FF1CF869571056105089474
:100640000895E894BB2766277727CB0197F908958B
:100650000E94B30208F48FEF089508950E94870363
:100660000E942D030E945300C0E0D0E00E945B0076
:100670002097E1F30E940000F9CF1F920F920FB66E
:100680000F9211242F933F938F939F93AF93BF9318
:100690008091C1019091C201A091C301B091C401A8
:1006A0003091C00123E0230F2D3720F40196A11DC6
:1006B000B11D05C026E8230F0296A11DB11D209390
:1006C000C0018093C1019093C201A093C301B09374
:1006D000C4018091C5019091C601A091C701B0915C
:1006E000C8010196A11DB11D8093C5019093C6015B
:1006F000A093C701B093C801BF91AF919F918F9113
:100700003F912F910F900FBE0F901F9018957894E6
:1007100084B5826084BD84B5816084BD85B5826006
:1007200085BD85B5816085BDEEE6F0E080818160A4
:100730008083E1E8F0E010828081826080838081A4
:1007400081608083E0E8F0E0808181608083E1EB7C
:10075000F0E0808184608083E0EBF0E08081816064
:100760008083EAE7F0E0808184608083808182601A
:100770008083808181608083808180688083109203
:10078000C10008958E3008F08E502091000190E451
:10079000299F900111248770822B80937C00809187
:1007A0007A00806480937A0080917A0086FDFCCF85
:1007B000809178002091790090E0922B0895F89430
:0207C000FFCF69
:1007C20001FA0013012C0145015E0177019001A994
:1007D20001C201DB01F4010D0226023F025802713F
:1007E200028A02A302BC02D502EE020703200339E9
:1007F2000352036B0384039D03B603CF03E8033361
:1008020033B33F00008040CDCCCC40CDCC0C419ADC
:10081200993141666656419A99794166668E4100E0
:1008220000A0419A99B1413333C3419A99D541000D
:1008320000E8416666FA41CDCC064266661042CDBA
:10084200CC1A42333325426666304266663C42CD5C
:10085200CC4842CDCC564200005C42000076426653
:1008620066844200008F42CDCC9B426666AB429AC0
:1008720099B4420000C0426666DE4200800B43002B
:00000001FF
