S01100004578657263697365342E73726563A7
S11300000C945C000C942A010C9451010C9479001A
S11300100C9479000C9479000C9479000C94790078
S11300200C9479000C9479000C9479000C94790068
S11300300C9479000C9479000C9479000C94790058
S11300400C9478010C9479000C9479000C94790048
S11300500C9479000C9479000C9479000C94790038
S11300600C9479000C94790000000008000201004F
S1130070000304070000000000000000010204085F
S113008010204080010204081020010204081020FE
S1130090040404040404040402020202020203032A
S11300A00303030300000000250028002B000000C8
S11300B00000240027002A0011241FBECFEFD8E03F
S11300C0DEBFCDBF11E0A0E0B1E0EAEEF5E002C092
S11300D005900D92A430B107D9F721E0A4E0B1E076
S11300E001C01D92AF30B207E1F70E94FA000C94F0
S11300F0F3020C9400009091050181E098279093FD
S11301000501909104018927809304010895909139
S1130110040181E0892780930401089561E082E06D
S11301200E94870261E081E00E94870261E083E02F
S11301300E94870242E050E06BE770E080E00E949A
S11301400A0142E050E067E870E081E00C940A01A3
S1130150CF936091040181E00E94C30261E082E0D8
S11301600E94C30260ED77E080E090E00E94E70126
S113017080910401C1E08C27809304016091040103
S113018081E00E94C30268EE73E080E090E00E9488
S1130190E70160E082E00E94C3026091040181E013
S11301A00E94C3026091050183E00E94C30260EDD6
S11301B077E080E090E00E94E701809105018C27C0
S11301C0809305016091050183E00E94C302609160
S11301D0040181E00E94C30268EE73E080E090E0D5
S11301E00E94E70180910401C827C0930401CF91C4
S11301F0089508950E9423020E94F9000E948E002F
S1130200C0E0D0E00E94A8002097E1F30E94000023
S1130210F9CF08958230E8F4E82FF0E0EE0FFF1FE5
S1130220E050FF4F71836083813041F08091690019
S11302308C7F482B40936900E89A08958091690067
S1130240837F440F551F440F551F482B409369006B
S1130250E99A08951F920F920FB60F9211242F93CB
S11302603F934F935F936F937F938F939F93AF933A
S1130270BF93EF93FF93E0910001F0910101099581
S1130280FF91EF91BF91AF919F918F917F916F916A
S11302905F914F913F912F910F900FBE0F901F9040
S11302A018951F920F920FB60F9211242F933F931C
S11302B04F935F936F937F938F939F93AF93BF936A
S11302C0EF93FF93E0910201F09103010995FF91EF
S11302D0EF91BF91AF919F918F917F916F915F91BA
S11302E04F913F912F910F900FBE0F901F90189533
S11302F01F920F920FB60F9211242F933F938F9357
S11303009F93AF93BF938091070190910801A091AF
S11303100901B0910A013091060123E0230F2D3722
S113032020F40196A11DB11D05C026E8230F0296F5
S1130330A11DB11D2093060180930701909308012C
S1130340A0930901B0930A0180910B0190910C01D3
S1130350A0910D01B0910E010196A11DB11D8093D4
S11303600B0190930C01A0930D01B0930E01BF916A
S1130370AF919F918F913F912F910F900FBE0F904E
S11303801F9018953FB7F89480910B0190910C0140
S1130390A0910D01B0910E0126B5A89B05C02F3F79
S11303A019F00196A11DB11D3FBFBA2FA92F982F97
S11303B08827820F911DA11DB11DBC01CD0142E012
S11303C0660F771F881F991F4A95D1F708958F925A
S11303D09F92AF92BF92CF92DF92EF92FF926B0106
S11303E07C010E94C2014B015C01C114D104E104EF
S11303F0F10401F10E94F2020E94C201DC01CB016E
S113040088199909AA09BB09883E9340A105B10539
S113041060F321E0C21AD108E108F10888EE880EE1
S113042083E0981EA11CB11CC114D104E104F104A1
S113043019F7DBCFFF90EF90DF90CF90BF90AF9094
S11304409F908F900895789484B5826084BD84B51C
S1130450816084BD85B5826085BD85B5816085BDBB
S1130460EEE6F0E0808181608083E1E8F0E01082D4
S1130470808182608083808181608083E0E8F0E015
S1130480808181608083E1EBF0E0808184608083FF
S1130490E0EBF0E0808181608083EAE7F0E0808136
S11304A08460808380818260808380818160808396
S11304B08081806880831092C1000895833081F028
S11304C028F4813099F08230A1F008958730A9F0A2
S11304D08830B9F08430D1F4809180008F7D03C0DE
S11304E0809180008F7780938000089584B58F7702
S11304F002C084B58F7D84BD08958091B0008F774C
S113050003C08091B0008F7D8093B0000895CF9395
S1130510DF9390E0FC01E458FF4F2491FC01E05785
S1130520FF4F8491882361F190E0880F991FFC01AB
S1130530E255FF4FC591D491FC01EC55FF4FA591B5
S1130540B491611109C09FB7F894888120958223E2
S11305508883EC912E230BC0623061F49FB7F8942A
S11305608881322F309583238883EC912E2B2C9312
S11305709FBF06C08FB7F894E8812E2B28838FBFC6
S1130580DF91CF9108951F93CF93DF93282F30E00D
S1130590F901E859FF4F8491F901E458FF4FD491D0
S11305A0F901E057FF4FC491CC23C1F0162F8111FC
S11305B00E945E02EC2FF0E0EE0FFF1FEC55FF4FA0
S11305C0A591B4919FB7F894111104C08C91D09562
S11305D0D82302C0EC91DE2BDC939FBFDF91CF9137
S10D05E01F9108950895F894FFCFC9
S10705EA09010901F5
S9030000FC
