:100000000C945C000C9467010C948E010C947900A4
:100010000C9479000C9479000C9479000C9479007C
:100020000C9479000C9479000C9479000C9479006C
:100030000C9479000C9479000C9479000C9479005C
:100040000C94B5010C9479000C9479000C9479000F
:100050000C9479000C9479000C9479000C9479003C
:100060000C9479000C947900000000080002010053
:100070000003040700000000000000000102040863
:100080001020408001020408102001020408102002
:10009000040404040404040402020202020203032E
:1000A0000303030300000000250028002B000000CC
:1000B0000000240027002A0011241FBECFEFD8E043
:1000C000DEBFCDBF11E0A0E0B1E0E6EFF7E002C097
:1000D00005900D92A630B107D9F721E0A6E0B1E076
:1000E00001C01D92AF30B207E1F70E9437010C94B6
:1000F000F9030C940000CF93DF93CDB7DEB7809166
:100100000001682F83E00E941D039091000181E0AF
:100110008927809300010000DF91CF910895CF934C
:10012000DF93CDB7DEB760E08EE00E94E10261E0D0
:1001300082E00E94E10261E081E00E94E10261E070
:1001400083E00E94E10243E050E06BE770E080E072
:100150000E9447010000DF91CF910895AF92BF92B6
:10016000CF92DF92EF92FF920F931F93CF93DF9383
:1001700000D0CDB7DEB78EE00E949B029A838983C0
:1001800089819A81092E000CAA0BBB0B1F921F922A
:100190001F922FEF2F93A12CB12C6501EE24EA942E
:1001A00013E0F12E00E010E020E030E0A901BC01F6
:1001B000CD010E944C030F900F900F900F90DC0127
:1001C000CB019A83898389819A818735910584F04F
:1001D00089819A818B3A91055CF461E081E00E940B
:1001E0001D0360ED77E080E090E00E94240222C0D1
:1001F00089819A8186359105BCF461E081E00E9495
:100200001D0361E082E00E941D0368EE73E080E060
:1002100090E00E9424020E947B0068EE73E080E080
:1002200090E00E94240206C060ED77E080E090E05C
:100230000E94240260E081E00E941D0360E082E0F1
:100240000E941D0364EF71E080E090E00E942402B0
:1002500000000F900F90DF91CF911F910F91FF90B1
:10026000EF90DF90CF90BF90AF90089508950E94D7
:1002700060020E9436010E948F00C0E0D0E00E9420
:10028000AE002097E1F30E940000F9CF089582307C
:10029000E8F4E82FF0E0EE0FFF1FEF5FFE4F7183F1
:1002A0006083813041F0809169008C7F482B4093BE
:1002B0006900E89A089580916900837F440F551F73
:1002C000440F551F482B40936900E99A08951F92E7
:1002D0000F920FB60F9211242F933F934F935F937A
:1002E0006F937F938F939F93AF93BF93EF93FF93FE
:1002F000E0910101F09102010995FF91EF91BF9109
:10030000AF919F918F917F916F915F914F913F91AD
:100310002F910F900FBE0F901F9018951F920F9264
:100320000FB60F9211242F933F934F935F936F93C8
:100330007F938F939F93AF93BF93EF93FF93E0913E
:100340000301F09104010995FF91EF91BF91AF91E5
:100350009F918F917F916F915F914F913F912F91DD
:100360000F900FBE0F901F9018951F920F920FB60F
:100370000F9211242F933F938F939F93AF93BF932B
:100380008091070190910801A0910901B0910A01A3
:100390003091060123E0230F2D3720F40196A11D93
:1003A000B11D05C026E8230F0296A11DB11D2093A3
:1003B00006018093070190930801A0930901B0936F
:1003C0000A0180910B0190910C01A0910D01B09157
:1003D0000E010196A11DB11D80930B0190930C019C
:1003E000A0930D01B0930E01BF91AF919F918F919A
:1003F0003F912F910F900FBE0F901F9018953FB710
:10040000F89480910B0190910C01A0910D01B09195
:100410000E0126B5A89B05C02F3F19F00196A11D1E
:10042000B11D3FBFBA2FA92F982F8827820F911D8A
:10043000A11DB11DBC01CD0142E0660F771F881FD1
:10044000991F4A95D1F708958F929F92AF92BF92CC
:10045000CF92DF92EF92FF926B017C010E94FF012D
:100460004B015C01C114D104E104F10401F10E94CB
:100470008D030E94FF01DC01CB0188199909AA09AB
:10048000BB09883E9340A105B10560F321E0C21A83
:10049000D108E108F10888EE880E83E0981EA11CBF
:1004A000B11CC114D104E104F10419F7DBCFFF90B2
:1004B000EF90DF90CF90BF90AF909F908F90089576
:1004C000789484B5826084BD84B5816084BD85B52F
:1004D000826085BD85B5816085BDEEE6F0E08081F6
:1004E00081608083E1E8F0E0108280818260808317
:1004F000808181608083E0E8F0E08081816080839A
:10050000E1EBF0E0808184608083E0EBF0E08081CB
:1005100081608083EAE7F0E080818460808380816D
:100520008260808380818160808380818068808315
:100530001092C10008958E3008F08E502091050170
:1005400090E4299F900111248770822B80937C0076
:1005500080917A00806480937A0080917A0086FD91
:10056000FCCF809178002091790090E0922B089543
:10057000833081F028F4813099F08230A1F0089521
:100580008730A9F08830B9F08430D1F480918000B0
:100590008F7D03C0809180008F77809380000895C5
:1005A00084B58F7702C084B58F7D84BD0895809116
:1005B000B0008F7703C08091B0008F7D8093B00032
:1005C0000895CF93DF9390E0FC01E458FF4F24910E
:1005D000FC01E057FF4F8491882361F190E0880F80
:1005E000991FFC01E255FF4FC591D491FC01EC55D8
:1005F000FF4FA591B491611109C09FB7F89488810C
:10060000209582238883EC912E230BC0623061F405
:100610009FB7F8948881322F309583238883EC919B
:100620002E2B2C939FBF06C08FB7F894E8812E2BFA
:1006300028838FBFDF91CF9108951F93CF93DF93CE
:10064000282F30E0F901E859FF4F8491F901E4586F
:10065000FF4FD491F901E057FF4FC491CC23C1F073
:10066000162F81110E94B802EC2FF0E0EE0FFF1F51
:10067000EC55FF4FA591B4919FB7F894111104C0A8
:100680008C91D095D82302C0EC91DE2BDC939FBFD8
:10069000DF91CF911F9108954F925F926F927F9259
:1006A000AF92BF92CF92DF92EF92FF920F931F9380
:1006B000CF93DF93CDB7DEB729013A019B01AC019F
:1006C000241935094609570989899A89AB89BC8952
:1006D000BC01CD016A197B098C099D090E948E031A
:1006E000A801970124193509460957090E949E035C
:1006F000CA01B9016A0D7B1D8C1D9D1DDF91CF9133
:100700001F910F91FF90EF90DF90CF90BF90AF902F
:100710007F906F905F904F9008950895DB018F93C5
:100720009F930E94BD03BF91AF91A29F800D911D29
:10073000A39F900DB29F900D11240895052E97FB55
:100740001EF400940E94B50357FD07D00E94C80311
:1007500007FC03D04EF40C94B503509540953095AA
:1007600021953F4F4F4F5F4F08959095809570951D
:1007700061957F4F8F4F9F4F08950E94EA03A59F79
:10078000900DB49F900DA49F800D911D112408958C
:10079000A1E21A2EAA1BBB1BFD010DC0AA1FBB1F85
:1007A000EE1FFF1FA217B307E407F50720F0A21BF7
:1007B000B30BE40BF50B661F771F881F991F1A9464
:1007C00069F760957095809590959B01AC01BD018E
:1007D000CF010895A29FB001B39FC001A39F700DE8
:1007E000811D1124911DB29F700D811D1124911D39
:0607F0000895F894FFCF0C
:0607F6000146014601016D
:00000001FF
