:100000000C9466000C9483000C9483000C94830081
:100010000C9483000C9483000C9483000C94830054
:100020000C9483000C9483000C9483000C94830044
:100030000C9483000C9483000C9483000C94830034
:100040000C944B060C9483000C9483000C94830056
:100050000C9483000C9483000C9483000C94830014
:100060000C9483000C948300D401E9000601230161
:1000700040015D017A019701B401B7010000000859
:10008000000201000003040700000000000000005F
:10009000010204081020408001020408102001021F
:1000A00004081020040404040404040402020202EC
:1000B00002020303030303030000000025002800DD
:1000C0002B0000000000240027002A0011241FBE7E
:1000D000CFEFD8E0DEBFCDBF11E0A0E0B1E0E6E2B7
:1000E000F0E102C005900D92A03CB107D9F721E0E4
:1000F000A0ECB1E001C01D92A93CB207E1F70E945B
:100100003C060C9411080C940000CF93DF93CDB7FC
:10011000DEB760E082E00E94B30760E083E00E9407
:10012000B30760E084E00E94B30760E085E00E94CE
:10013000B30760E086E00E94B30760E087E00E94BA
:10014000B30760E088E00E94B3070000DF91CF9121
:100150000895CF93DF93CDB7DEB761E082E00E94D0
:10016000B30761E083E00E94B30761E084E00E948E
:10017000B30761E085E00E94B30761E086E00E947A
:10018000B30761E087E00E94B30761E088E00E9466
:10019000B3070000DF91CF910895CF93DF9300D094
:1001A000CDB7DEB79A83898389819A81092E000CA5
:1001B000AA0BBB0B40E050E029E030E0841B950B1C
:1001C0002817390708F40DC18C5C9F4FFC010C9473
:1001D000F70761E082E00E94B30761E083E00E94DC
:1001E000B30761E084E00E94B30761E085E00E940C
:1001F000B30760E086E00E94B30761E087E00E94F9
:10020000B30760E088E00E94B307EBC060E082E0E3
:100210000E94B30761E083E00E94B30760E084E0DE
:100220000E94B30760E085E00E94B30761E086E0CA
:100230000E94B30760E087E00E94B30760E088E0B7
:100240000E94B307CEC060E082E00E94B30761E085
:1002500083E00E94B30761E084E00E94B30760E09E
:1002600085E00E94B30760E086E00E94B30760E08B
:1002700087E00E94B30760E088E00E94B307B1C046
:1002800061E082E00E94B30760E083E00E94B30770
:1002900061E084E00E94B30761E085E00E94B3075B
:1002A00060E086E00E94B30760E087E00E94B30749
:1002B00060E088E00E94B30794C060E082E00E94A2
:1002C000B30760E083E00E94B30761E084E00E942E
:1002D000B30760E085E00E94B30760E086E00E941B
:1002E000B30760E087E00E94B30761E088E00E9406
:1002F000B30777C060E082E00E94B30760E083E06C
:100300000E94B30760E084E00E94B30760E085E0EC
:100310000E94B30760E086E00E94B30760E087E0D8
:100320000E94B30761E088E00E94B3075AC060E012
:1003300082E00E94B30761E083E00E94B30761E0BE
:1003400084E00E94B30761E085E00E94B30760E0AB
:1003500086E00E94B30761E087E00E94B30760E097
:1003600088E00E94B3073DC00E9485003AC060E06B
:1003700082E00E94B30760E083E00E94B30761E07F
:1003800084E00E94B30760E085E00E94B30760E06C
:1003900086E00E94B30760E087E00E94B30760E058
:1003A00088E00E94B3071DC060E082E00E94B307AE
:1003B00060E083E00E94B30760E084E00E94B3073E
:1003C00060E085E00E94B30760E086E00E94B3072A
:1003D00061E087E00E94B30760E088E00E94B30715
:1003E000000000000F900F90DF91CF910895CF9300
:1003F000DF93CDB7DEB761E082E00E94770761E06E
:1004000083E00E94770761E084E00E94770761E063
:1004100085E00E94770761E086E00E94770761E04F
:1004200087E00E94770761E088E00E94770700007C
:10043000DF91CF910895CF93DF93CDB7DEB7669765
:100440000FB6F894DEBF0FBECDBF1A821982898124
:100450009A81039734F50E94850061E083E00E9451
:10046000B30761E084E00E94B30768EE73E080E0C8
:1004700090E00E94BA060E94850061E088E00E9438
:10048000B30761E086E00E94B30768EE73E080E0A6
:1004900090E00E94BA0689819A8101969A838983A5
:1004A000D6CF0E94A90060ED77E080E090E00E9446
:1004B000BA0619861A861B861C868EE00E943107B2
:1004C000092E000CAA0BBB0BBC01CD010E942E050E
:1004D000DC01CB0189879A87AB87BC8720E030E0BD
:1004E00048EC51E469857A858B859C850E9484045B
:1004F000DC01CB0120E030E0A901BC01CD010E946C
:10050000360688230CF43FC020E030E048EC51E48C
:1005100069857A858B859C850E948404DC01CB01EA
:1005200020E030E040E05FE3BC01CD010E94130415
:10053000DC01CB01BC01CD010E94F6049B01AC01A2
:10054000DA01C901880F991FAA1FBB1F880F991FC5
:10055000AA1FBB1F820F931FA41FB51F9C01AD01D3
:10056000220F331F441F551F220F331F441F551FD7
:10057000820F931FA41FB51FBC01CD010E942E0541
:10058000DC01CB013EC020E030E048EC51E469855D
:100590007A858B859C850E948404DC01CB0120E058
:1005A00030E040E05FE3BC01CD010E941204DC01B9
:1005B000CB01BC01CD010E94F6049B01AC01DA0124
:1005C000C901880F991FAA1FBB1F880F991FAA1F57
:1005D000BB1F820F931FA41FB51F9C01AD01220FEB
:1005E000331F441F551F220F331F441F551F820FF7
:1005F000931FA41FB51FBC01CD010E942E05DC0175
:10060000CB018D879E87AF87B88B1C821B821E8291
:100610001D828D819E814F9744F58D819E81880F2B
:10062000991F8F5F9E4FFC0180819181092E000CE4
:10063000AA0BBB0BBC01CD010E942E05DC01CB0136
:100640002D853E854F855889BC01CD010E947F04D0
:10065000882329F48D819E819C838B8306C08D81A4
:100660009E8101969E838D83D4CF8B819C81880F40
:10067000991F880F991F815C9E4FFC018081918199
:10068000A281B381BC01CD010E946905DC01CB01CF
:10069000BC01CD010E94F604DC01CB019A8B898B51
:1006A00089899A892AE030E0B9010E94E307CB01E9
:1006B000092E000CAA0BBB0BBC01CD010E942E051C
:1006C000DC01CB01BC01CD010E946905DC01CB013D
:1006D000BC01CD010E94F604DC01CB019C8B8B8B0D
:1006E0008B899C890E94CD0068EE73E080E090E0E9
:1006F0000E94BA060E94A90060ED77E080E090E0D9
:100700000E94BA0689899A892AE030E0B9010E94DC
:10071000E3079E8B8D8B8D899E890E94CD0068EEAC
:1007200073E080E090E00E94BA060E94A90060EDAC
:1007300077E080E090E00E94BA0618861F828F81E1
:10074000988503970CF05CC00E94A90060E086E0E9
:100750000E94B3076CE271E080E090E00E94BA066C
:1007600061E086E00E94B30760E085E00E94B30785
:100770006CE271E080E090E00E94BA0661E085E002
:100780000E94B30760E084E00E94B3076CE271E06E
:1007900080E090E00E94BA0661E084E00E94B30726
:1007A00060E083E00E94B3076CE271E080E090E0DB
:1007B0000E94BA0661E083E00E94B30760E082E035
:1007C0000E94B3076CE271E080E090E00E94BA06FC
:1007D00061E082E00E94B30760E088E00E94B30716
:1007E0006CE271E080E090E00E94BA0661E088E08F
:1007F0000E94B3078F819885019698878F839FCF3A
:100800000E94A90060ED77E080E090E00E94BA06C7
:10081000000066960FB6F894DEBF0FBECDBFDF9125
:10082000CF9108955058BB27AA270E942A040C9400
:10083000E4050E94D60538F00E94DD0520F039F469
:100840009F3F19F426F40C94D3050EF4E095E7FBD2
:100850000C94A405E92F0E94F50558F3BA17620716
:1008600073078407950720F079F4A6F50C942F06FA
:100870000EF4E0950B2EBA2FA02D0B01B9019001BB
:100880000C01CA01A0011124FF27591B99F0593FFF
:1008900050F4503E68F11A16F040A22F232F342F47
:1008A0004427585FF3CF469537952795A795F04095
:1008B0005395C9F77EF41F16BA0B620B730B840BAA
:1008C000BAF09150A1F0FF0FBB1F661F771F881F62
:1008D000C2F70EC0BA0F621F731F841F48F48795BA
:1008E00077956795B795F7959E3F08F0B0CF9395AC
:1008F000880F08F09927EE0F9795879508950E9425
:10090000800508F481E008950E9498040C94E405A1
:100910000E94DD0558F00E94D60540F029F45F3FA3
:1009200029F00C94A40551110C9430060C94D305B5
:100930000E94F50568F39923B1F3552391F3951BB4
:10094000550BBB27AA2762177307840738F09F5FF0
:100950005F4F220F331F441FAA1FA9F335D00E2E5D
:100960003AF0E0E832D091505040E695001CCAF7CA
:100970002BD0FE2F29D0660F771F881FBB1F26178D
:1009800037074807AB07B0E809F0BB0B802DBF0164
:10099000FF2793585F4F3AF09E3F510578F00C9433
:1009A000A4050C9430065F3FE4F3983ED4F386959B
:1009B00077956795B795F7959F5FC9F7880F911D54
:1009C0009695879597F90895E1E0660F771F881F40
:1009D000BB1F621773078407BA0720F0621B730BF3
:1009E000840BBA0BEE1F88F7E09508950E94FD0472
:1009F0006894B1110C94300608950E94FD0588F0AA
:100A00009F5798F0B92F9927B751B0F0E1F0660FD2
:100A1000771F881F991F1AF0BA95C9F714C0B13013
:100A200091F00E942F06B1E008950C942F06672FD5
:100A3000782F8827B85F39F0B93FCCF38695779542
:100A40006795B395D9F73EF490958095709561952B
:100A50007F4F8F4F9F4F0895E89409C097FB3EF456
:100A600090958095709561957F4F8F4F9F4F9923FB
:100A7000A9F0F92F96E9BB279395F6958795779579
:100A80006795B795F111F8CFFAF4BB0F11F460FF39
:100A90001BC06F5F7F4F8F4F9F4F16C0882311F091
:100AA00096E911C0772321F09EE8872F762F05C0A5
:100AB000662371F096E8862F70E060E02AF09A9540
:100AC000660F771F881FDAF7880F9695879597F935
:100AD00008950E94170690F09F3748F4911116F080
:100AE0000C94300660E070E080E89FEB089526F4F7
:100AF0001B16611D711D811D0C94AA050C94C50562
:100B0000990F0008550FAA0BE0E8FEEF161617061E
:100B1000E807F907C0F012161306E407F50798F086
:100B2000621B730B840B950B39F40A2661F0232B9F
:100B3000242B252B21F408950A2609F4A140A6951B
:100B40008FEF811D811D089597F99F6780E870E000
:100B500060E00895882371F4772321F09850872B63
:100B6000762F07C0662311F499270DC09051862B6C
:100B700070E060E02AF09A95660F771F881FDAF719
:100B8000880F9695879597F908959F3F31F091507A
:100B900020F4879577956795B795880F911D969561
:100BA000879597F908959FEF80EC089500240A94A3
:100BB0001616170618060906089500240A94121638
:100BC0001306140605060895092E0394000C11F46B
:100BD000882352F0BB0F40F4BF2B11F460FF04C018
:100BE0006F5F7F4F8F4F9F4F089557FD9058440F71
:100BF000551F59F05F3F71F04795880F97FB991F7C
:100C000061F09F3F79F08795089512161306140638
:100C1000551FF2CF4695F1DF08C0161617061806C5
:100C2000991FF1CF869571056105089408950E947A
:100C3000FD05A0F0BEE7B91788F4BB279F3860F424
:100C40001616B11D672F782F8827985FF7CF8695E6
:100C500077956795B11D93959639C8F30895E894F3
:100C6000BB2766277727CB0197F908950E94800557
:100C700008F48FEF089508950E94F6060E943B063F
:100C80000E94F701C0E0D0E00E941B022097E1F330
:100C90000E940000F9CF1F920F920FB60F921124FD
:100CA0002F933F938F939F93AF93BF938091C101F5
:100CB0009091C201A091C301B091C4013091C001D3
:100CC00023E0230F2D3720F40196A11DB11D05C08F
:100CD00026E8230F0296A11DB11D2093C001809329
:100CE000C1019093C201A093C301B093C40180914C
:100CF000C5019091C601A091C701B091C8010196AC
:100D0000A11DB11D8093C5019093C601A093C70199
:100D1000B093C801BF91AF919F918F913F912F9157
:100D20000F900FBE0F901F9018953FB7F8948091C9
:100D3000C5019091C601A091C701B091C80126B527
:100D4000A89B05C02F3F19F00196A11DB11D3FBF03
:100D5000BA2FA92F982F8827820F911DA11DB11D91
:100D6000BC01CD0142E0660F771F881F991F4A958D
:100D7000D1F708958F929F92AF92BF92CF92DF9258
:100D8000EF92FF926B017C010E9495064B015C0182
:100D9000C114D104E104F10401F10E94E2070E94B0
:100DA0009506DC01CB0188199909AA09BB09883E7F
:100DB0009340A105B10560F321E0C21AD108E10812
:100DC000F10888EE880E83E0981EA11CB11CC114A6
:100DD000D104E104F10419F7DBCFFF90EF90DF902D
:100DE000CF90BF90AF909F908F900895789484B5E6
:100DF000826084BD84B5816084BD85B5826085BD17
:100E000085B5816085BDEEE6F0E0808181608083FC
:100E1000E1E8F0E0108280818260808380818160DF
:100E20008083E0E8F0E0808181608083E1EBF0E0A6
:100E3000808184608083E0EBF0E08081816080834A
:100E4000EAE7F0E080818460808380818260808333
:100E50008081816080838081806880831092C1005E
:100E600008958E3008F08E502091000190E4299F63
:100E7000900111248770822B80937C0080917A00EE
:100E8000806480937A0080917A0086FDFCCF809107
:100E900078002091790090E0922B0895833081F0C2
:100EA00028F4813099F08230A1F008958730A9F0BC
:100EB0008830B9F08430D1F4809180008F7D03C0F8
:100EC000809180008F7780938000089584B58F771C
:100ED00002C084B58F7D84BD08958091B0008F7766
:100EE00003C08091B0008F7D8093B0000895CF93B0
:100EF000DF9390E0FC01E057FF4F2491FC01EC559B
:100F0000FF4F8491882361F190E0880F991FFC01C5
:100F1000EE53FF4FC591D491FC01E854FF4FA591CA
:100F2000B491611109C09FB7F894888120958223FC
:100F30008883EC912E230BC0623061F49FB7F89444
:100F40008881322F309583238883EC912E2B2C932C
:100F50009FBF06C08FB7F894E8812E2B28838FBFE0
:100F6000DF91CF9108951F93CF93DF93282F30E027
:100F7000F901E458FF4F8491F901E057FF4FD491F4
:100F8000F901EC55FF4FC491CC23C1F0162F81110C
:100F90000E944E07EC2FF0E0EE0FFF1FE854FF4FCA
:100FA000A591B4919FB7F894111104C08C91D0957C
:100FB000D82302C0EC91DE2BDC939FBFDF91CF9151
:100FC0001F910895089597FB072E16F4009407D0FB
:100FD00077FD09D00E94FD0707FC05D03EF49095EF
:100FE00081959F4F0895709561957F4F0895EE0FFD
:100FF000FF1F0590F491E02D0994AA1BBB1B51E142
:1010000007C0AA1FBB1FA617B70710F0A61BB70B78
:10101000881F991F5A95A9F780959095BC01CD011D
:061020000895F894FFCFD3
:1010260001FA0013012C0145015E0177019001A927
:1010360001C201DB01F4010D0226023F02580271D2
:10104600028A02A302BC02D502EE0207032003397C
:101056000352036B0384039D03B603CF03E80333F4
:1010660033B33F00008040CDCCCC40CDCC0C419A70
:10107600993141666656419A99794166668E410074
:1010860000A0419A99B1413333C3419A99D54100A1
:1010960000E8416666FA41CDCC064266661042CD4E
:1010A600CC1A42333325426666304266663C42CDF0
:1010B600CC4842CDCC564200005C420000764266E7
:1010C60066844200008F42CDCC9B426666AB429A54
:1010D60099B4420000C0426666DE4200800B4300BF
:00000001FF
