:100000000C9434000C9451000C9451000C94510049
:100010000C9451000C9451000C9451000C9451001C
:100020000C9451000C9451000C9451000C9451000C
:100030000C9451000C9451000C9451000C945100FC
:100040000C943F030C9451000C9451000C945100FB
:100050000C9451000C9451000C9451000C945100DC
:100060000C9451000C94510011241FBECFEFD8E026
:10007000DEBFCDBF11E0A0E0B1E0E6ECF7E002C0EA
:1000800005900D92A03CB107D9F721E0A0ECB1E0BA
:1000900001C01D92AB3CB207E1F70E9430030C9403
:1000A000E1030C940000CF93DF93CDB7DEB70000DF
:1000B000DF91CF910895CF93DF93CDB7DEB72E9721
:1000C0000FB6F894DEBF0FBECDBF1B821C821D820F
:1000D0001E828EE00E94C403092E000CAA0BBB0BEB
:1000E000BC01CD010E947A02DC01CB018B839C8391
:1000F000AD83BE8320E030E048EC51E46B817C812D
:100100008D819E810E94D001DC01CB0120E030E096
:10011000A901BC01CD010E942A0388230CF43FC031
:1001200020E030E048EC51E46B817C818D819E8140
:100130000E94D001DC01CB0120E030E040E05FE331
:10014000BC01CD010E945F01DC01CB01BC01CD01EE
:100150000E9442029B01AC01DA01C901880F991F7C
:10016000AA1FBB1F880F991FAA1FBB1F820F931FB7
:10017000A41FB51F9C01AD01220F331F441F551F43
:10018000220F331F441F551F820F931FA41FB51F3B
:10019000BC01CD010E947A02DC01CB013EC020E00F
:1001A00030E048EC51E46B817C818D819E810E941E
:1001B000D001DC01CB0120E030E040E05FE3BC0196
:1001C000CD010E945E01DC01CB01BC01CD010E948A
:1001D00042029B01AC01DA01C901880F991FAA1FD5
:1001E000BB1F880F991FAA1FBB1F820F931FA41F3D
:1001F000B51F9C01AD01220F331F441F551F220F55
:10020000331F441F551F820F931FA41FB51FBC012E
:10021000CD010E947A02DC01CB018F839887A987E8
:10022000BA871A82198289819A814F9754F58981F8
:100230009A81880F991F80509F4FFC018081918186
:10024000092E000CAA0BBB0BBC01CD010E947A0247
:10025000DC01CB012F81388549855A85BC01CD0150
:100260000E94CB01882339F489819A819093C1013E
:100270008093C00106C089819A8101969A838983FF
:10028000D2CF8091C0019091C101880F991F880F32
:10029000991F825C9E4FFC0180819181A281B38174
:1002A0008B879C87AD87BE8700002E960FB6F8948B
:1002B000DEBF0FBECDBFDF91CF9108955058BB2751
:1002C000AA270E9476010C94F0020E94E20238F004
:1002D0000E94E90220F039F49F3F19F426F40C94AF
:1002E000DF020EF4E095E7FB0C94D902E92F0E949F
:1002F000010358F3BA17620773078407950720F0C4
:1003000079F4A6F50C9423030EF4E0950B2EBA2F86
:10031000A02D0B01B90190010C01CA01A00111240B
:10032000FF27591B99F0593F50F4503E68F11A16B7
:10033000F040A22F232F342F4427585FF3CF469548
:1003400037952795A795F0405395C9F77EF41F166A
:10035000BA0B620B730B840BBAF09150A1F0FF0F34
:10036000BB1F661F771F881FC2F70EC0BA0F621F20
:10037000731F841F48F4879577956795B795F79510
:100380009E3F08F0B0CF9395880F08F09927EE0FA5
:100390009795879508950E94B50208F481E0089525
:1003A0000E94E4010C94F0020E94E90258F00E94BD
:1003B000E20240F029F45F3F29F00C94D902511178
:1003C0000C9424030C94DF020E94010368F3992328
:1003D000B1F3552391F3951B550BBB27AA27621741
:1003E0007307840738F09F5F5F4F220F331F441F4E
:1003F000AA1FA9F335D00E2E3AF0E0E832D0915082
:100400005040E695001CCAF72BD0FE2F29D0660F6E
:10041000771F881FBB1F261737074807AB07B0E8B1
:1004200009F0BB0B802DBF01FF2793585F4F3AF0B7
:100430009E3F510578F00C94D9020C9424035F3F41
:10044000E4F3983ED4F3869577956795B795F7953D
:100450009F5FC9F7880F911D9695879597F9089525
:10046000E1E0660F771F881FBB1F621773078407C1
:10047000BA0720F0621B730B840BBA0BEE1F88F7D0
:10048000E09508950E9449026894B1110C942403E8
:1004900008950E94090388F09F5798F0B92F992773
:1004A000B751B0F0E1F0660F771F881F991F1AF05F
:1004B000BA95C9F714C0B13091F00E942303B1E09E
:1004C00008950C942303672F782F8827B85F39F09D
:1004D000B93FCCF3869577956795B395D9F73EF4F8
:1004E00090958095709561957F4F8F4F9F4F0895A0
:1004F000E89409C097FB3EF49095809570956195BE
:100500007F4F8F4F9F4F9923A9F0F92F96E9BB2773
:100510009395F695879577956795B795F111F8CFEF
:10052000FAF4BB0F11F460FF1BC06F5F7F4F8F4F5A
:100530009F4F16C0882311F096E911C0772321F050
:100540009EE8872F762F05C0662371F096E8862FE8
:1005500070E060E02AF09A95660F771F881FDAF73F
:10056000880F9695879597F90895990F0008550F6C
:10057000AA0BE0E8FEEF16161706E807F907C0F029
:1005800012161306E407F50798F0621B730B840B31
:10059000950B39F40A2661F0232B242B252B21F40B
:1005A00008950A2609F4A140A6958FEF811D811DAB
:1005B000089597F99F6780E870E060E008959FEFE5
:1005C00080EC089500240A941616170618060906EA
:1005D000089500240A9412161306140605060895B9
:1005E000092E0394000C11F4882352F0BB0F40F441
:1005F000BF2B11F460FF04C06F5F7F4F8F4F9F4F81
:10060000089557FD9058440F551F59F05F3F71F002
:100610004795880F97FB991F61F09F3F79F0879569
:100620000895121613061406551FF2CF4695F1DFF2
:1006300008C0161617061806991FF1CF8695710582
:10064000610508940895E894BB2766277727CB01B6
:1006500097F908950E94B50208F48FEF0895089560
:100660000E9489030E942F030E945300C0E0D0E043
:100670000E945B002097E1F30E940000F9CF1F92D7
:100680000F920FB60F9211242F933F938F939F9346
:10069000AF93BF938091C3019091C401A091C50114
:1006A000B091C6013091C20123E0230F2D3720F411
:1006B0000196A11DB11D05C026E8230F0296A11DBC
:1006C000B11D2093C2018093C3019093C401A093F4
:1006D000C501B093C6018091C7019091C801A09156
:1006E000C901B091CA010196A11DB11D8093C70136
:1006F0009093C801A093C901B093CA01BF91AF9173
:100700009F918F913F912F910F900FBE0F901F904F
:100710001895789484B5826084BD84B5816084BD69
:1007200085B5826085BD85B5816085BDEEE6F0E06A
:10073000808181608083E1E8F0E0108280818260C6
:100740008083808181608083E0E8F0E08081816047
:100750008083E1EBF0E0808184608083E0EBF0E077
:10076000808181608083EAE7F0E08081846080831B
:1007700080818260808380818160808380818068C5
:1007800080831092C10008958E3008F08E50209121
:10079000BE0190E4299F900111248770822B8093E1
:1007A0007C0080917A00806480937A0080917A0046
:1007B00086FDFCCF809178002091790090E0922B0B
:0607C0000895F894FFCF3C
:1007C600FA0013012C0145015E0177019001A90190
:1007D600C201DB01F4010D0226023F02580271023A
:1007E6008A02A302BC02D502EE02070320033903E4
:1007F60052036B0384039D03B603CF03E80333332D
:10080600B33F00008040CDCCCC40CDCC0C419A9972
:100816003141666656419A99794166668E41000075
:10082600A0419A99B1413333C3419A99D541000009
:10083600E8416666FA41CDCC064266661042CDCCEA
:100846001A42333325426666304266663C42CDCC58
:100856004842CDCC564200005C42000076426666B5
:10086600844200008F42CDCC9B426666AB429A9989
:10087600B4420000C0426666DE4200800B430100BF
:00000001FF
