:100000000C945C000C9479000C9479000C947900A9
:100010000C9479000C9479000C9479000C9479007C
:100020000C9479000C9479000C9479000C94520192
:100030000C9479000C9479000C9479000C9479005C
:100040000C94CB040C9479000C9479000C947900F6
:100050000C9479000C9479000C9479000C9479003C
:100060000C9479000C947900000000080002010053
:100070000003040700000000000000000102040863
:100080001020408001020408102001020408102002
:10009000040404040404040402020202020203032E
:1000A0000303030300000000250028002B000000CC
:1000B0000000240027002A0011241FBECFEFD8E043
:1000C000DEBFCDBF11E0A0E0B1E0EAECFCE002C091
:1000D00005900D92A03CB107D9F721E0A0ECB1E06A
:1000E00001C01D92AA3CB207E1F70E94BC040C9427
:1000F00063060C940000CF93DF93CDB7DEB761E0C9
:1001000083E00E94330668EE73E080E090E00E9496
:100110003A050000DF91CF910895CF93DF93CDB7DB
:10012000DEB761E082E00E94330668EE73E080E0B3
:1001300090E00E943A050000DF91CF910895CF939F
:10014000DF93CDB7DEB78091C001682F84E00E94B5
:1001500033069091C00181E089278093C00100009F
:10016000DF91CF910895CF93DF9300D0CDB7DEB765
:100170009A83898361E081E00E94330689819A81B4
:10018000092E000CAA0BBB0BBC01CD010E943A0545
:1001900060E081E00E94330689819A81092E000C7B
:1001A000AA0BBB0BBC01CD010E943A0500000F90C9
:1001B0000F90DF91CF910895CF93DF93CDB7DEB746
:1001C00060E083E00E94330660E082E00E94330634
:1001D0000000DF91CF910895CF93DF9300D000D03E
:1001E000CDB7DEB79C838B838B819C8181709078A7
:1001F000992324F401978E6F9F6F01969A838983C8
:1002000089819A810F900F900F900F90DF91CF917D
:100210000895CF93DF93CDB7DEB761E081E00E9410
:10022000F70561E082E00E94F70561E083E00E944B
:10023000F70561E084E00E94F705F89480E890E01B
:10024000FC01108281E890E0FC01108284E890E0DB
:10025000FC011182108288E890E021E13AE7FC017C
:100260003183208381E890E021E830E0F9012081AA
:100270002860FC01208381E890E021E830E0F9016A
:1002800020812560FC0120838FE690E02FE630E09E
:10029000F90120812260FC01208378940000DF9125
:1002A000CF9108951F920F9200905F000F9211243A
:1002B0002F933F934F935F936F937F938F939F936E
:1002C000AF93BF93EF93FF93CF93DF93CDB7DEB799
:1002D0000E949F000000DF91CF91FF91EF91BF91AD
:1002E000AF919F918F917F916F915F914F913F91CE
:1002F0002F910F9000925F000F901F901895CF9351
:10030000DF93CDB7DEB72A970FB6F894DEBF0FBEE6
:10031000CDBF0E94D101DC01CB018B839C83AD83D7
:10032000BE8320E030E048EC51E46B817C818D811C
:100330009E810E94570388231CF40E947B0002C008
:100340000E948D000E94DC000E94D70298878F8354
:100350008F8198850E94EC009A8789871A8219827A
:1003600089819A8105979CF489859A85019729F45A
:1003700088EE93E00E94B30004C088EC90E00E94F5
:10038000B30089819A8101969A838983E9CF00001D
:100390002A960FB6F894DEBF0FBECDBFDF91CF9186
:1003A0000895CF93DF93CDB7DEB760970FB6F8947B
:1003B000DEBF0FBECDBF1D821E821F8218868EE05B
:1003C0000E94B105092E000CAA0BBB0BBC01CD018C
:1003D0000E940604DC01CB018D839E83AF83B88726
:1003E00020E030E048EC51E46D817E818F8198857A
:1003F0000E945C03DC01CB0120E030E0A901BC01DC
:10040000CD010E94B60488230CF43FC020E030E008
:1004100048EC51E46D817E818F8198850E945C0358
:10042000DC01CB0120E030E040E05FE3BC01CD0126
:100430000E94EB02DC01CB01BC01CD010E94CE0386
:100440009B01AC01DA01C901880F991FAA1FBB1FCC
:10045000880F991FAA1FBB1F820F931FA41FB51FD0
:100460009C01AD01220F331F441F551F220F331F64
:10047000441F551F820F931FA41FB51FBC01CD0140
:100480000E940604DC01CB013EC020E030E048ECD5
:1004900051E46D817E818F8198850E945C03DC012F
:1004A000CB0120E030E040E05FE3BC01CD010E94E1
:1004B000EA02DC01CB01BC01CD010E94CE039B010D
:1004C000AC01DA01C901880F991FAA1FBB1F880F51
:1004D000991FAA1FBB1F820F931FA41FB51F9C014A
:1004E000AD01220F331F441F551F220F331F441F1E
:1004F000551F820F931FA41FB51FBC01CD010E9481
:100500000604DC01CB0189879A87AB87BC871A82F6
:1005100019821C821B828B819C814F9744F58B81B1
:100520009C81880F991F8F5F9E4FFC018081918174
:10053000092E000CAA0BBB0BBC01CD010E940604C6
:10054000DC01CB0129853A854B855C85BC01CD0159
:100550000E945703882329F48B819C819A83898385
:1005600006C08B819C8101969C838B83D4CF89812B
:100570009A81880F991F880F991F815C9E4FFC01FB
:1005800080819181A281B3818D879E87AF87B88B4F
:100590008D859E85AF85B889BC01CD0160960FB66B
:1005A000F894DEBF0FBECDBFDF91CF910895CF93FA
:1005B000DF9300D0CDB7DEB71A8219828EE00E9499
:1005C000B1059A83898389819A810F900F90DF9179
:1005D000CF9108955058BB27AA270E9402030C947C
:1005E0007C040E946E0438F00E94750420F039F4F7
:1005F0009F3F19F426F40C946B040EF4E095E7FB8E
:100600000C946504E92F0E948D0458F3BA17620711
:1006100073078407950720F079F4A6F50C94AF04CE
:100620000EF4E0950B2EBA2FA02D0B01B90190010D
:100630000C01CA01A0011124FF27591B99F0593F51
:1006400050F4503E68F11A16F040A22F232F342F99
:100650004427585FF3CF469537952795A795F040E7
:100660005395C9F77EF41F16BA0B620B730B840BFC
:10067000BAF09150A1F0FF0FBB1F661F771F881FB4
:10068000C2F70EC0BA0F621F731F841F48F487950C
:1006900077956795B795F7959E3F08F0B0CF9395FE
:1006A000880F08F09927EE0F9795879508950E9477
:1006B000410408F481E008950E9470030C947C04C6
:1006C0000E94750458F00E946E0440F029F45F3FC8
:1006D00029F00C94650451110C94B0040C946B0433
:1006E0000E948D0468F39923B1F3552391F3951B70
:1006F000550BBB27AA2762177307840738F09F5F43
:100700005F4F220F331F441FAA1FA9F335D00E2EAF
:100710003AF0E0E832D091505040E695001CCAF71C
:100720002BD0FE2F29D0660F771F881FBB1F2617DF
:1007300037074807AB07B0E809F0BB0B802DBF01B6
:10074000FF2793585F4F3AF09E3F510578F00C9485
:1007500065040C94B0045F3FE4F3983ED4F38695AF
:1007600077956795B795F7959F5FC9F7880F911DA6
:100770009695879597F90895E1E0660F771F881F92
:10078000BB1F621773078407BA0720F0621B730B45
:10079000840BBA0BEE1F88F7E09508950E94D503ED
:1007A0006894B1110C94B00408950E94950488F0E7
:1007B0009F5798F0B92F9927B751B0F0E1F0660F25
:1007C000771F881F991F1AF0BA95C9F714C0B13066
:1007D00091F00E94AF04B1E008950C94AF04672F2C
:1007E000782F8827B85F39F0B93FCCF38695779595
:1007F0006795B395D9F73EF490958095709561957E
:100800007F4F8F4F9F4F0895E89409C097FB3EF4A8
:1008100090958095709561957F4F8F4F9F4F99234D
:10082000A9F0F92F96E9BB279395F69587957795CB
:100830006795B795F111F8CFFAF4BB0F11F460FF8B
:100840001BC06F5F7F4F8F4F9F4F16C0882311F0E3
:1008500096E911C0772321F09EE8872F762F05C0F7
:10086000662371F096E8862F70E060E02AF09A9592
:10087000660F771F881FDAF7880F9695879597F987
:100880000895990F0008550FAA0BE0E8FEEF161621
:100890001706E807F907C0F012161306E407F50774
:1008A00098F0621B730B840B950B39F40A2661F0E8
:1008B000232B242B252B21F408950A2609F4A1408B
:1008C000A6958FEF811D811D089597F99F6780E898
:1008D00070E060E008959FEF80EC089500240A9492
:1008E0001616170618060906089500240A9412160B
:1008F0001306140605060895092E0394000C11F43E
:10090000882352F0BB0F40F4BF2B11F460FF04C0EA
:100910006F5F7F4F8F4F9F4F089557FD9058440F43
:10092000551F59F05F3F71F04795880F97FB991F4E
:1009300061F09F3F79F0879508951216130614060B
:10094000551FF2CF4695F1DF08C016161706180698
:10095000991FF1CF86957105610508940895E89473
:10096000BB2766277727CB0197F908950E9441049A
:1009700008F48FEF089508950E9476050E94BB0445
:100980000E940901C0E0D0E00E947F012097E1F3BE
:100990000E940000F9CF1F920F920FB60F92112400
:1009A0002F933F938F939F93AF93BF938091C201F7
:1009B0009091C301A091C401B091C5013091C101D2
:1009C00023E0230F2D3720F40196A11DB11D05C092
:1009D00026E8230F0296A11DB11D2093C10180932B
:1009E000C2019093C301A093C401B093C50180914B
:1009F000C6019091C701A091C801B091C9010196AB
:100A0000A11DB11D8093C6019093C701A093C80199
:100A1000B093C901BF91AF919F918F913F912F9159
:100A20000F900FBE0F901F9018953FB7F8948091CC
:100A3000C6019091C701A091C801B091C90126B526
:100A4000A89B05C02F3F19F00196A11DB11D3FBF06
:100A5000BA2FA92F982F8827820F911DA11DB11D94
:100A6000BC01CD0142E0660F771F881F991F4A9590
:100A7000D1F708958F929F92AF92BF92CF92DF925B
:100A8000EF92FF926B017C010E9415054B015C0106
:100A9000C114D104E104F10401F10E9462060E9434
:100AA0001505DC01CB0188199909AA09BB09883E03
:100AB0009340A105B10560F321E0C21AD108E10815
:100AC000F10888EE880E83E0981EA11CB11CC114A9
:100AD000D104E104F10419F7DBCFFF90EF90DF9030
:100AE000CF90BF90AF909F908F900895789484B5E9
:100AF000826084BD84B5816084BD85B5826085BD1A
:100B000085B5816085BDEEE6F0E0808181608083FF
:100B1000E1E8F0E0108280818260808380818160E2
:100B20008083E0E8F0E0808181608083E1EBF0E0A9
:100B3000808184608083E0EBF0E08081816080834D
:100B4000EAE7F0E080818460808380818260808336
:100B50008081816080838081806880831092C10061
:100B600008958E3008F08E502091000190E4299F66
:100B7000900111248770822B80937C0080917A00F1
:100B8000806480937A0080917A0086FDFCCF80910A
:100B900078002091790090E0922B0895833081F0C5
:100BA00028F4813099F08230A1F008958730A9F0BF
:100BB0008830B9F08430D1F4809180008F7D03C0FB
:100BC000809180008F7780938000089584B58F771F
:100BD00002C084B58F7D84BD08958091B0008F7769
:100BE00003C08091B0008F7D8093B0000895CF93B3
:100BF000DF9390E0FC01E458FF4F2491FC01E057A3
:100C0000FF4F8491882361F190E0880F991FFC01C8
:100C1000E255FF4FC591D491FC01EC55FF4FA591D2
:100C2000B491611109C09FB7F894888120958223FF
:100C30008883EC912E230BC0623061F49FB7F89447
:100C40008881322F309583238883EC912E2B2C932F
:100C50009FBF06C08FB7F894E8812E2B28838FBFE3
:100C6000DF91CF9108951F93CF93DF93282F30E02A
:100C7000F901E859FF4F8491F901E458FF4FD491ED
:100C8000F901E057FF4FC491CC23C1F0162F811119
:100C90000E94CE05EC2FF0E0EE0FFF1FEC55FF4F4A
:100CA000A591B4919FB7F894111104C08C91D0957F
:100CB000D82302C0EC91DE2BDC939FBFDF91CF9154
:0A0CC0001F9108950895F894FFCFE6
:100CCA0001FA0013012C0145015E0177019001A987
:100CDA0001C201DB01F4010D0226023F0258027132
:100CEA00028A02A302BC02D502EE020703200339DC
:100CFA000352036B0384039D03B603CF03E8033354
:100D0A0033B33F00008040CDCCCC40CDCC0C419ACF
:100D1A00993141666656419A99794166668E4100D3
:100D2A0000A0419A99B1413333C3419A99D5410000
:100D3A0000E8416666FA41CDCC064266661042CDAD
:100D4A00CC1A42333325426666304266663C42CD4F
:100D5A00CC4842CDCC564200005C42000076426646
:100D6A0066844200008F42CDCC9B426666AB429AB3
:100D7A0099B4420000C0426666DE4200800B43001E
:00000001FF
